:060000000A128A11872F8D
:100F0E0083010A128A119B2F303083120313900033
:100F1E000B308F00DC308E001014952F0C1C982F88
:100F2E00992F952F0C100800F1018316031307114A
:100F3E000F30831203139700FF30831603139200B2
:100F4E001030831203139500073092000A128A1193
:100F5E008B270A128A11F10110307102031CB82F6F
:100F6E00B92FBB2FFD2FFD2F831203131508103E33
:100F7E0095000A128A118B270A128A110A128A11F7
:100F8E008B270A128A110A128A118B270A128A11CA
:100F9E000A128A118B270A128A110A128A118B27BA
:100FAE000A128A110A128A118B270A128A110A1240
:100FBE008A118B270A128A110A128A118B270A129A
:100FCE008A110A128A118B270A128A110A128A11A1
:100FDE008B270A128A110130F0007008F1071030C9
:100FEE007102031CFB2FFC2FBB2FFD2F0A128A113F
:020FFE000028C9
:02400E007A1F17
:00000001FF
