:060000000A128A11812B97
:1006D000073403340B3409340D340C340E3406342F
:1006E0007E088A007F08820070230A128A11800027
:1006F000840A04087D0603190034FF0A0319FE0A60
:10070000742B83132830FD000330FE006830FF0097
:10071000203084000A128A1174230A128A1183017C
:100720000A128A11932BF301F401F501F6018316E5
:10073000031386018501F301F4017408803AFF0078
:1007400080307F02031DA62B0D307302031CA92BE2
:10075000AA2BAC2BF92BF92B831203130514F501EB
:10076000F6017608803AFF0080307F02031DBA2B25
:1007700008307502031CBD2BBE2BC02BE52BE52BCF
:100780007508203E8400831300088312031386003B
:100790002130F1007630F000F00BCC2BF10BCC2B9C
:1007A00064000130F5070318F60A0030F6077608F2
:1007B000803AFF0080307F02031DE02B0830750275
:1007C000031CE32BE42BC02BE52B0130F3070318AC
:1007D000F40A0030F4077408803AFF0080307F028A
:1007E000031DF42B0D307302031CF72BF82BAC2BDD
:1007F000F92B1A30F2004530F1007E30F000F00B9A
:10080000FF2BF10BFF2BF20BFF2BF301F40174080C
:10081000803AFF0080307F02031D102C0D307302E0
:10082000031C132C142C162C532C532C831203133F
:1008300005140730F5000030F600F61F202C212C9F
:10084000232C3F2C3F2C7508203E84008313000886
:100850008312031386002130F1007630F000F00B94
:100860002F2CF10B2F2C6400FF30F5070318F60A2C
:10087000FF30F607F61F3D2C3E2C232C3F2C013079
:10088000F3070318F40A0030F4077408803AFF00F5
:1008900080307F02031D4E2C0D307302031C512C3F
:1008A000522C162C532C1A30F2004530F1007E30B9
:1008B000F000F00B592CF10B592CF20B592CF301D1
:1008C000F4017408803AFF0080307F02031D6A2C17
:1008D00032307302031C6D2C6E2C702CBD2CBD2C81
:1008E000831203130514F501F6017608803AFF0020
:1008F00080307F02031D7E2C08307502031C812C82
:10090000822C842CA92CA92C7508203E84008313EA
:1009100000088312031386002130F1007630F000C6
:10092000F00B902CF10B902C64000130F5070318AC
:10093000F60A0030F6077608803AFF0080307F0222
:10094000031DA42C08307502031CA72CA82C842C92
:10095000A92C0130F3070318F40A0030F4077408D7
:10096000803AFF0080307F02031DB82C32307302C2
:10097000031CBB2CBC2C702CBD2C1A30F200453053
:10098000F1007E30F000F00BC32CF10BC32CF20B06
:10099000C32CF301F4017408803AFF0080307F0219
:1009A000031DD42C19307302031CD72CD82CDA2C3D
:1009B000272D272D831203138514F501F6017608E0
:1009C000803AFF0080307F02031DE82C083075025A
:1009D000031CEB2CEC2CEE2C132D132D7508203E54
:1009E0008400831300088312031386002130F10072
:1009F0007630F000F00BFA2CF10BFA2C6400013089
:100A0000F5070318F60A0030F6077608803AFF006B
:100A100080307F02031D0E2D08307502031C112D3E
:100A2000122DEE2C132D0130F3070318F40A0030B9
:100A3000F4077408803AFF0080307F02031D222DE6
:100A400019307302031C252D262DDA2C272D1A3080
:100A5000F2004530F1007E30F000F00B2D2DF10B4F
:100A60002D2DF20B2D2DF301F4017408803AFF00B7
:100A700080307F02031D3E2D19307302031C412D6F
:100A8000422D442D812D812D8312031385140830AE
:100A9000F5000030F600F61F4E2D4F2D512D6D2D17
:100AA0006D2D7508203E8400831300088312031304
:100AB00086002130F1007630F000F00B5D2DF10B57
:100AC0005D2D6400FF30F5070318F60AFF30F607C6
:100AD000F61F6B2D6C2D512D6D2D0130F307031872
:100AE000F40A0030F4077408803AFF0080307F0277
:100AF000031D7C2D19307302031C7F2D802D442D86
:100B0000812D1A30F2004530F1007E30F000F00BFC
:100B1000872DF10B872DF20B872DF301F40174085B
:100B2000803AFF0080307F02031D982D323073021F
:100B3000031C9B2D9C2D9E2DEB2DEB2D831203135F
:100B40008514F501F6017608803AFF0080307F02B7
:100B5000031DAC2D08307502031CAF2DB02DB22D36
:100B6000D72DD72D7508203E8400831300088312EB
:100B7000031386002130F1007630F000F00BBE2D1B
:100B8000F10BBE2D64000130F5070318F60A0030A2
:100B9000F6077608803AFF0080307F02031DD22DD1
:100BA00008307502031CD52DD62DB22DD72D01305E
:100BB000F3070318F40A0030F4077408803AFF00C2
:100BC00080307F02031DE62D32307302031CE92DB5
:100BD000EA2D9E2DEB2D1A30F2004530F1007E30CB
:100BE000F000F00BF12DF10BF12DF20BF12DF301D3
:100BF000F4017408803AFF0080307F02031D022E4A
:100C000025307302031C052E062E082E552E552E58
:100C1000831203130515F501F6017608803AFF00EB
:100C200080307F02031D162E08307502031C192E1A
:100C30001A2E1C2E412E412E7508203E840083134F
:100C400000088312031386002130F1007630F00093
:100C5000F00B282EF10B282E64000130F507031845
:100C6000F60A0030F6077608803AFF0080307F02EF
:100C7000031D3C2E08307502031C3F2E402E1C2EF7
:100C8000412E0130F3070318F40A0030F40774080A
:100C9000803AFF0080307F02031D502E2530730202
:100CA000031C532E542E082E552E1A30F2004530B8
:100CB000F1007E30F000F00B5B2EF10B5B2EF20B9F
:100CC0005B2EF301F4017408803AFF0080307F024C
:100CD000031D6C2E25307302031C6F2E702E722E96
:100CE000AF2EAF2E8312031305150730F500003029
:100CF000F600F61F7C2E7D2E7F2E9B2E9B2E7508D8
:100D0000203E8400831300088312031386002130E1
:100D1000F1007630F000F00B8B2EF10B8B2E64007F
:100D2000FF30F5070318F60AFF30F607F61F992E75
:100D30009A2E7F2E9B2E0130F3070318F40A003001
:100D4000F4077408803AFF0080307F02031DAA2E4A
:100D500025307302031CAD2EAE2E722EAF2E1A302C
:100D6000F2004530F1007E30F000F00BB52EF10BB3
:100D7000B52EF20BB52EF301F4017408803AFF0092
:100D800080307F02031DC62E32307302031CC92E31
:100D9000CA2ECC2E192F192F831203130515F50116
:100DA000F6017608803AFF0080307F02031DDA2EBC
:100DB00008307502031CDD2EDE2EE02E052F052FD8
:100DC0007508203E840083130008831203138600F5
:100DD0002130F1007630F000F00BEC2EF10BEC2E10
:100DE00064000130F5070318F60A0030F6077608AC
:100DF000803AFF0080307F02031D002F083075020B
:100E0000031C032F042FE02E052F0130F3070318D6
:100E1000F40A0030F4077408803AFF0080307F0243
:100E2000031D142F32307302031C172F182FCC2EE2
:100E3000192F1A30F2004530F1007E30F000F00B2F
:100E40001F2FF10B1F2FF20B1F2FF301F40174085A
:100E5000803AFF0080307F02031D302F3230730252
:100E6000031C332F342F362F732F732F831203134A
:100E700085150730F5000030F600F61F402F412F92
:100E8000432F5F2F5F2F7508203E840083130008D7
:100E90008312031386002130F1007630F000F00B4E
:100EA0004F2FF10B4F2F6400FF30F5070318F60AA0
:100EB000FF30F607F61F5D2F5E2F432F5F2F0130A7
:100EC000F3070318F40A0030F4077408803AFF00AF
:100ED00080307F02031D6E2F32307302031C712F8E
:100EE000722F362F732F1A30F2004530F1007E300A
:100EF000F000F00B792FF10B792FF20B792FF30122
:100F0000F4017408803AFF0080307F02031D8A2FAD
:100F100032307302031C8D2F8E2F902FDD2FDD2F8B
:100F2000831203138515F501F6017608803AFF0058
:100F300080307F02031D9E2F08307502031CA12FF5
:100F4000A22FA42FC92FC92F7508203E8400831318
:100F500000088312031386002130F1007630F00080
:100F6000F00BB02FF10BB02F64000130F507031820
:100F7000F60A0030F6077608803AFF0080307F02DC
:100F8000031DC42F08307502031CC72FC82FA42FC0
:100F9000C92F0130F3070318F40A0030F40774086E
:100FA000803AFF0080307F02031DD82F3230730259
:100FB000031CDB2FDC2F902FDD2F1A30F200453081
:100FC000F1007E30F000F00BE32FF10BE32FF20B7A
:100FD000E32FFF308312031386001A30F2004530EE
:100FE000F1007E30F000F00BF32FF10BF32FF20B3A
:100FF000F32F9B2B9B2BFC2FFC2F0A128A1100280E
:02400E007A1F17
:00000001FF
